{"hash":"0000000000000295b629e94570ebe77eb499285c89f45478dd7aba55a1f88d50","confirmations":341691,"strippedsize":216,"size":216,"weight":864,"height":162500,"version":1,"versionHex":"00000001","merkleroot":"318b22dd2d511ad7addd9f78425ad7e15349552fb0c44ff233b173a1b11ae130","tx":[{"txid":"318b22dd2d511ad7addd9f78425ad7e15349552fb0c44ff233b173a1b11ae130","hash":"318b22dd2d511ad7addd9f78425ad7e15349552fb0c44ff233b173a1b11ae130","version":1,"size":135,"vsize":135,"weight":540,"locktime":0,"vin":[{"coinbase":"04d7690d1a027103","sequence":4294967295}],"vout":[{"value":50,"n":0,"scriptPubKey":{"asm":"0407de17558e9a9cc08332c5e00db677b7aef001edeaf4533526141a1c09e1f13f368860e2a95dcb899f009297996e2d6f67bca19ce50bbc9a66914e3dcf6ef7ce OP_CHECKSIG","hex":"410407de17558e9a9cc08332c5e00db677b7aef001edeaf4533526141a1c09e1f13f368860e2a95dcb899f009297996e2d6f67bca19ce50bbc9a66914e3dcf6ef7ceac","type":"pubkey"}}],"hex":"01000000010000000000000000000000000000000000000000000000000000000000000000ffffffff0804d7690d1a027103ffffffff0100f2052a0100000043410407de17558e9a9cc08332c5e00db677b7aef001edeaf4533526141a1c09e1f13f368860e2a95dcb899f009297996e2d6f67bca19ce50bbc9a66914e3dcf6ef7ceac00000000"}],"time":1326742656,"mediantime":1326740870,"nonce":1331764660,"bits":"1a0d69d7","difficulty":1250757.739274659,"chainwork":"00000000000000000000000000000000000000000000000b827c8f764c5f4e3b","nTx":1,"previousblockhash":"000000000000058e7cbb1e0646f4874915407e58e997732cc96431a17d708601","nextblockhash":"00000000000008e69407cb4aa45fc2647db285ad9e0d7dae42769eed5f7d9a2e"}