{"hash":"00000000000ace2adaabf1baf9dc0ec54434db11e9fd63c1819d8d77df40afda","confirmations":400054,"strippedsize":5792,"size":5792,"weight":23168,"height":75000,"version":1,"versionHex":"00000001","merkleroot":"ed385c2dbc69aa24965909c7d9d11bbd99faa085cb4ec17865d9b557ffb3a68a","tx":[{"txid":"5277cf3790381c2cc2b071038d8c35b3b601207c92f8aec15978a5f01ecf8319","hash":"5277cf3790381c2cc2b071038d8c35b3b601207c92f8aec15978a5f01ecf8319","version":1,"size":135,"vsize":135,"weight":540,"locktime":0,"vin":[{"coinbase":"040e80001c023f03","sequence":4294967295}],"vout":[{"value":50,"n":0,"scriptPubKey":{"asm":"048a097402d58a64e82cce8d39514ea121afe9a2ae534de6acf5ea9804508e032445f3763dd0b012687f83a33a9a570db0d3f7cd539b368317528f687244a2bd3c OP_CHECKSIG","hex":"41048a097402d58a64e82cce8d39514ea121afe9a2ae534de6acf5ea9804508e032445f3763dd0b012687f83a33a9a570db0d3f7cd539b368317528f687244a2bd3cac","type":"pubkey"}}],"hex":"01000000010000000000000000000000000000000000000000000000000000000000000000ffffffff08040e80001c023f03ffffffff0100f2052a010000004341048a097402d58a64e82cce8d39514ea121afe9a2ae534de6acf5ea9804508e032445f3763dd0b012687f83a33a9a570db0d3f7cd539b368317528f687244a2bd3cac00000000"},{"txid":"182c2ed191a35ea496ce84c42d8beee6f9d82b9f063de2e45a54692bb043696a","hash":"182c2ed191a35ea496ce84c42d8beee6f9d82b9f063de2e45a54692bb043696a","version":1,"size":4076,"vsize":4076,"weight":16304,"locktime":0,"vin":[{"txid":"df57e0c31230ba1470a8066e20fb3b52dd051bdc1f6a77ad1cffe76227ca66ee","vout":0,"scriptSig":{"asm":"3045022100ec7a06a92e4b910b20f6b733c812bbc95936f42dcc9f8c870004cdd768dbfe6802201d7e4009beadb62548a1967235dac2b52f0c4f999fc98093bcb380ce7baa7241[ALL]","hex":"483045022100ec7a06a92e4b910b20f6b733c812bbc95936f42dcc9f8c870004cdd768dbfe6802201d7e4009beadb62548a1967235dac2b52f0c4f999fc98093bcb380ce7baa724101"},"sequence":4294967295},{"txid":"25b1aed70442da7295e7890c07176c65b10328075ca023dcee8943623cc4aff5","vout":0,"scriptSig":{"asm":"3045022046383ec628b43b3d770bf0955a579ef98e90ad445a1531ad2d356d3bf304cc18022100cb278ab0835a61d2953d309e3805cc4611aaa9b7b8986ff33e2c2279f0c54544[ALL]","hex":"483045022046383ec628b43b3d770bf0955a579ef98e90ad445a1531ad2d356d3bf304cc18022100cb278ab0835a61d2953d309e3805cc4611aaa9b7b8986ff33e2c2279f0c5454401"},"sequence":4294967295},{"txid":"401b8902ca41f4d0a723941ae80629d36c09446246358d6388588754d67727fc","vout":0,"scriptSig":{"asm":"304502205f8e78715297f85589bbb3b02d32d781a50117c632642903cf97c5c27981f2ba022100ef943f836ba5f0867394bfb23597c02bc240adc3bf799562f42a332bb625d08e[ALL]","hex":"48304502205f8e78715297f85589bbb3b02d32d781a50117c632642903cf97c5c27981f2ba022100ef943f836ba5f0867394bfb23597c02bc240adc3bf799562f42a332bb625d08e01"},"sequence":4294967295},{"txid":"97b5a88bf696e79b6fc44322ca5f609d38040f74b602b3a9d2ea6ca3764520fe","vout":0,"scriptSig":{"asm":"3046022100e91924f31e06fe5909da12ba2dffd6901deea5ac03ce98aa864ebc9c2fdb61d9022100ef50efb87619b8ec8032cb9a9b066b85d787f78f0ad7eba8f4fe0ad552e3554d[ALL]","hex":"493046022100e91924f31e06fe5909da12ba2dffd6901deea5ac03ce98aa864ebc9c2fdb61d9022100ef50efb87619b8ec8032cb9a9b066b85d787f78f0ad7eba8f4fe0ad552e3554d01"},"sequence":4294967295},{"txid":"6fd05699e0bb5b91cd4f961a42dffa800fb030bb8b12ed1b53b44c1b077761ff","vout":0,"scriptSig":{"asm":"304402200dc6642e298a874e2e59d24eab636b41c8bb936847ad1b09a5fd873a1ff5c860022003300d84e61dfcb151bc991e6aaa3efa8bde22cfefc430c1a1fe715c253cbbfb[ALL]","hex":"47304402200dc6642e298a874e2e59d24eab636b41c8bb936847ad1b09a5fd873a1ff5c860022003300d84e61dfcb151bc991e6aaa3efa8bde22cfefc430c1a1fe715c253cbbfb01"},"sequence":4294967295},{"txid":"6c2d9fb6c9f8de1576700d850b81a9d3b6da94f5166ceba07670bac20d81a8ff","vout":0,"scriptSig":{"asm":"3045022068dd453a90170589d5336e81606b7e415a92e9ce1a2e191e707e6b84356c9201022100c1ebd6dedc588d7d0a39baf47db334ebc707dae808e8b62d1bf84be823584d34[ALL]","hex":"483045022068dd453a90170589d5336e81606b7e415a92e9ce1a2e191e707e6b84356c9201022100c1ebd6dedc588d7d0a39baf47db334ebc707dae808e8b62d1bf84be823584d3401"},"sequence":4294967295},{"txid":"2034328ed784f9ea0a50dec91af5e44059576d901e874dbc129fd81420b7c156","vout":0,"scriptSig":{"asm":"3046022100908649eff41bbc98e2f834df99574a8a021a22bac5835e8c354721e89fab263002210083bee7ed535893e1a08f76fb638e805b87d68a484021da88f6015c8bd54e8437[ALL]","hex":"493046022100908649eff41bbc98e2f834df99574a8a021a22bac5835e8c354721e89fab263002210083bee7ed535893e1a08f76fb638e805b87d68a484021da88f6015c8bd54e843701"},"sequence":4294967295},{"txid":"b352c68d008b373215b3ce4c800a4443be29d99f34912a305e5e0c67a2a51e5a","vout":0,"scriptSig":{"asm":"3044022025161ecc778a6ad293cffc7f1652a68668d28818522badd29e053a00f7be3c9d022006f07ba8218faba61d32f1b08ff69e6f275bc35e2bac29b03e8a9a1f2bb822b6[ALL]","hex":"473044022025161ecc778a6ad293cffc7f1652a68668d28818522badd29e053a00f7be3c9d022006f07ba8218faba61d32f1b08ff69e6f275bc35e2bac29b03e8a9a1f2bb822b601"},"sequence":4294967295},{"txid":"8411f970971d233e57ef5488765b088daa5ce6ad9ea8764f5551436877dce45f","vout":0,"scriptSig":{"asm":"3046022100a094e7af4fc6326b8bf2e79542c22ba0c629944c14e57897971b7f107c67395b022100c810a9e72fffd12c6e258f0066bb806f1372b634cbb04c23b5117439e846bddc[ALL]","hex":"493046022100a094e7af4fc6326b8bf2e79542c22ba0c629944c14e57897971b7f107c67395b022100c810a9e72fffd12c6e258f0066bb806f1372b634cbb04c23b5117439e846bddc01"},"sequence":4294967295},{"txid":"9103a9d629a5c6249d10029f4cf0beb08580c2b4a4ca5ed3ad4d830b5e42d264","vout":0,"scriptSig":{"asm":"3045022100ff488d8f06f0d50184d001bf13afe498ee0fb003aac88a57d08aaa0d853a5f0802207a344dc2c147e19990f3cc943784cb5cf8e8fd37ed3ae6bc0a8f2ff3e1107dd5[ALL]","hex":"483045022100ff488d8f06f0d50184d001bf13afe498ee0fb003aac88a57d08aaa0d853a5f0802207a344dc2c147e19990f3cc943784cb5cf8e8fd37ed3ae6bc0a8f2ff3e1107dd501"},"sequence":4294967295},{"txid":"9cae6427a81357cf29c00e2feca169337806224ff125748f8352d58ff864a267","vout":0,"scriptSig":{"asm":"3046022100c4f2e17b96362e4f5ad972e1033c9d283edcfdc39787c7b8c967000e0dc27be5022100e23fa15c7ec36db12af38fd60cf447a4364cfab0513110453476c1ddf56c0bf9[ALL]","hex":"493046022100c4f2e17b96362e4f5ad972e1033c9d283edcfdc39787c7b8c967000e0dc27be5022100e23fa15c7ec36db12af38fd60cf447a4364cfab0513110453476c1ddf56c0bf901"},"sequence":4294967295},{"txid":"dfae926e6d4c63b28372863e102e69675e425548bb1da2d6f92a9da248606b72","vout":0,"scriptSig":{"asm":"304502203ca7133c179bb0ead27aacd01e0083c2c44c5c1c64503f2b1a0d7f886abfb96a0221008b9da59851550f0ee4f10cdbd632e4fff5ec145b7d486a0d681ca27b38c4c9e8[ALL]","hex":"48304502203ca7133c179bb0ead27aacd01e0083c2c44c5c1c64503f2b1a0d7f886abfb96a0221008b9da59851550f0ee4f10cdbd632e4fff5ec145b7d486a0d681ca27b38c4c9e801"},"sequence":4294967295},{"txid":"7fc1c7183e228fe6a8109a5b10f2dbe26f0215a15067c5a6890d419cb545067e","vout":0,"scriptSig":{"asm":"3045022100d18412fa40af09493eb4e91e3c2fc6c88420d76f55f542054b75f76d7e08b8910220445d5fba3fce7fed354373b8d516b8e337f1fb59b70d39910d39ac0078db6b2d[ALL]","hex":"483045022100d18412fa40af09493eb4e91e3c2fc6c88420d76f55f542054b75f76d7e08b8910220445d5fba3fce7fed354373b8d516b8e337f1fb59b70d39910d39ac0078db6b2d01"},"sequence":4294967295},{"txid":"30ed4faee192f1dddbbe7f8ac69c50eebed6ffb07914ebae05ff4fb82512c48d","vout":0,"scriptSig":{"asm":"304502210082f0d08842a4bb3466b9b53d8a941feb46e9ca21593e21157e062a770063ce02022022124a4c0a22928330640ce734dd71f1cc1221ed8a1213601fc4217f82535890[ALL]","hex":"48304502210082f0d08842a4bb3466b9b53d8a941feb46e9ca21593e21157e062a770063ce02022022124a4c0a22928330640ce734dd71f1cc1221ed8a1213601fc4217f8253589001"},"sequence":4294967295},{"txid":"bfea11fe22bd54ad571ea0e0af4829ff1c67d9170287ebee33e2623497dab896","vout":0,"scriptSig":{"asm":"304502207ba711f5684f20955222485939374bb65ed1c65749c861b1ca3a2eecfda64dac022100e86f57341bbac16f3b625bbe9ff704d5a401e6dbb7f549cf6d7e75de65888c2a[ALL]","hex":"48304502207ba711f5684f20955222485939374bb65ed1c65749c861b1ca3a2eecfda64dac022100e86f57341bbac16f3b625bbe9ff704d5a401e6dbb7f549cf6d7e75de65888c2a01"},"sequence":4294967295},{"txid":"97cc9ea1c282bd86e5de07750dd66d9ca7e45d13a505d3996d733d606e4e139a","vout":0,"scriptSig":{"asm":"304402207c1291c9dd221e473762ad40e0adfd3eb69f2d1d5bf974d770312973f58b284e02200c5e469cd596cb434740204d8bc852f23e0524205ac8caec6892a1c16d924c61[ALL]","hex":"47304402207c1291c9dd221e473762ad40e0adfd3eb69f2d1d5bf974d770312973f58b284e02200c5e469cd596cb434740204d8bc852f23e0524205ac8caec6892a1c16d924c6101"},"sequence":4294967295},{"txid":"51ed4499adeba3a989912de20d7f24f830c52ec46f629a3d8f64a1860334a99c","vout":0,"scriptSig":{"asm":"3046022100a0c972b40bde8295238ccc9cc46c9524e1985ca21ed030f7605fc5fd6408868f022100c0d1ea429785cd213867764d392fe08e6c4b7921c1c7470a700d3fbea02cf049[ALL]","hex":"493046022100a0c972b40bde8295238ccc9cc46c9524e1985ca21ed030f7605fc5fd6408868f022100c0d1ea429785cd213867764d392fe08e6c4b7921c1c7470a700d3fbea02cf04901"},"sequence":4294967295},{"txid":"a72d3e54eeab8f1c9f212249a6a19220d87fd435b32bb2aa7709fe9451a0669e","vout":0,"scriptSig":{"asm":"3046022100cbef01b3dc0ceffe6c69ef24a3c492a4070c124db1cae98b018a140921cf3955022100d78159ae805e5e4e7800717a598fa4a5e6786788d35c9c06e831638390731805[ALL]","hex":"493046022100cbef01b3dc0ceffe6c69ef24a3c492a4070c124db1cae98b018a140921cf3955022100d78159ae805e5e4e7800717a598fa4a5e6786788d35c9c06e83163839073180501"},"sequence":4294967295},{"txid":"bc226f46ef8cb8b314bfa57b5969a00d6749557ff9feb99ca05818187ecd80a0","vout":0,"scriptSig":{"asm":"304502205e73a472b6cbf06c011ca7f2ee0346df7469cc5beb51c663a8c58932ca55fdf302210091bef8a0cfb799d92e791aff4f3d9064b933d233fc6197d6d549ca9a60a4ba1a[ALL]","hex":"48304502205e73a472b6cbf06c011ca7f2ee0346df7469cc5beb51c663a8c58932ca55fdf302210091bef8a0cfb799d92e791aff4f3d9064b933d233fc6197d6d549ca9a60a4ba1a01"},"sequence":4294967295},{"txid":"f05e4cf78c067e5b3dde3499ef53713a6edf24af21f904e219e0c2b51e32e3b0","vout":0,"scriptSig":{"asm":"3045022100fd05e974b18c843ad82a3c17cb65387cde312325867342934a52725cca7a476d02207b02809a5b63f1cd72e4d46a78206a44cb6aaba72f85b7c7ce8a43fec61300ac[ALL]","hex":"483045022100fd05e974b18c843ad82a3c17cb65387cde312325867342934a52725cca7a476d02207b02809a5b63f1cd72e4d46a78206a44cb6aaba72f85b7c7ce8a43fec61300ac01"},"sequence":4294967295},{"txid":"3fdf6679fcdb6534491006b01af5f7935905a69d57aa772710aa6cfc9c6563b5","vout":0,"scriptSig":{"asm":"3045022100a1982449871b99aa06b9a3c69974099fcbe8d5aa4cb1576556f59c23748127b6022019566603250af7b2fb505ae75bf0b4bc5acfeb7e3cb249f2c904c4e34d468f69[ALL]","hex":"483045022100a1982449871b99aa06b9a3c69974099fcbe8d5aa4cb1576556f59c23748127b6022019566603250af7b2fb505ae75bf0b4bc5acfeb7e3cb249f2c904c4e34d468f6901"},"sequence":4294967295},{"txid":"1f8ebce21f626218eaffee6e91780e6d45135e21226b17b472e03eebf4429fb5","vout":0,"scriptSig":{"asm":"3046022100b5032f6f4baac626322892468923c88ba778b258dc8f1db83e1a752107d74eef022100f68215f62ffb0814d8b1ef18d51cef001172316f6a91c07c72746cc601102158[ALL]","hex":"493046022100b5032f6f4baac626322892468923c88ba778b258dc8f1db83e1a752107d74eef022100f68215f62ffb0814d8b1ef18d51cef001172316f6a91c07c72746cc60110215801"},"sequence":4294967295},{"txid":"a0fa4e4235db919e59ab2ae72969da83133742d32d131c09e4e9d9c7718b26bb","vout":0,"scriptSig":{"asm":"304402201118a5f52331d5a3e8919dae9d972b7915337ef59c657b03669e9748a3c0604802204bf0a4052f0e86e4baee84e59f8e5c90206f3ab20bdcac12bf05e92e17107238[ALL]","hex":"47304402201118a5f52331d5a3e8919dae9d972b7915337ef59c657b03669e9748a3c0604802204bf0a4052f0e86e4baee84e59f8e5c90206f3ab20bdcac12bf05e92e1710723801"},"sequence":4294967295},{"txid":"9ec2856b8153313cad9a72bbb807bf994dba2afcfe023411c4f34129cff443bb","vout":0,"scriptSig":{"asm":"30450220195f0b3ff2a030b2d13c7ec9e89c83e231b6d768e20d6f44d4adf44eadfba123022100823846a70f6a567a52ef3cec3a941d6633766a85da3cdcb9b2ddcf3a3ceb0b88[ALL]","hex":"4830450220195f0b3ff2a030b2d13c7ec9e89c83e231b6d768e20d6f44d4adf44eadfba123022100823846a70f6a567a52ef3cec3a941d6633766a85da3cdcb9b2ddcf3a3ceb0b8801"},"sequence":4294967295},{"txid":"182c002c92c6eec6174717fc3771b999214ccadfad721ed9dd0a392e94e081bd","vout":0,"scriptSig":{"asm":"30460221008a349df7d32a5ae400b742fd9f3cc29c4aa09d9d21870ab4d12fba76aaab6eea02210080050495cf47f300c39044896457aea1ebe23768e25b8b08dca9a1c88f32c931[ALL]","hex":"4930460221008a349df7d32a5ae400b742fd9f3cc29c4aa09d9d21870ab4d12fba76aaab6eea02210080050495cf47f300c39044896457aea1ebe23768e25b8b08dca9a1c88f32c93101"},"sequence":4294967295},{"txid":"026ab631a4ac88e9465981c9881cb999ef7ef46187ac4517522b297caa11d1c8","vout":0,"scriptSig":{"asm":"304502210092deeb93410c147761c46e5a73cd55f09a188454f1c1400b7a9a9bea90dc7989022028702df7db410d803abf7c666406cf4d23be7b3ec7b202a5dc5b6ab58f8d1aaa[ALL]","hex":"48304502210092deeb93410c147761c46e5a73cd55f09a188454f1c1400b7a9a9bea90dc7989022028702df7db410d803abf7c666406cf4d23be7b3ec7b202a5dc5b6ab58f8d1aaa01"},"sequence":4294967295},{"txid":"6e5d88b0be5152a16809df6ff2325434d33dee2858db6ea9227555b0259c9ee3","vout":0,"scriptSig":{"asm":"3045022100ff15d42e2672790ec48037eb2b3b182bc0d3c012423099f86fc9a42db5a8b01202201572966348450eab9326befe3aec986e7ed6901c1b21d840f8c936cffd106c70[ALL]","hex":"483045022100ff15d42e2672790ec48037eb2b3b182bc0d3c012423099f86fc9a42db5a8b01202201572966348450eab9326befe3aec986e7ed6901c1b21d840f8c936cffd106c7001"},"sequence":4294967295},{"txid":"184ca65e06b6e8f02663f3fa6393de87f155c861f2b74be7f542562995507ae4","vout":0,"scriptSig":{"asm":"304502210097262257a6b04107493a051824b019f0c086257ebacdb69b3ff4d2c69ddeb0a002201b171d36c16878eb30d49e05e0e9957032a818c12e6eb3bff272d2ce1204f358[ALL]","hex":"48304502210097262257a6b04107493a051824b019f0c086257ebacdb69b3ff4d2c69ddeb0a002201b171d36c16878eb30d49e05e0e9957032a818c12e6eb3bff272d2ce1204f35801"},"sequence":4294967295},{"txid":"b71768035eb64cac7807834cdb9a2bcfb35ce79b774a5a990e55867e09dd95e5","vout":0,"scriptSig":{"asm":"304502203f00055c832cf61db8d73f7ac07812267d1608adfb1e4a86bc4afcb3365db717022100cebbe2bb71241fa19f83f8c8dca0fd31733396ac308d5eac63c6a0af5e553bf0[ALL]","hex":"48304502203f00055c832cf61db8d73f7ac07812267d1608adfb1e4a86bc4afcb3365db717022100cebbe2bb71241fa19f83f8c8dca0fd31733396ac308d5eac63c6a0af5e553bf001"},"sequence":4294967295},{"txid":"97c9820971502193af63ef4637a96ed06ad7c6eb243ba81f780fef6d14ee952d","vout":0,"scriptSig":{"asm":"304402206fc6fe9e34928a99011aabfbea19638bf291977b1950dfcacc8fca66aedade2302204c67c4eef76aa9859f58c466a2a17e8a101f1029e712b6ee11b625a5ce101684[ALL]","hex":"47304402206fc6fe9e34928a99011aabfbea19638bf291977b1950dfcacc8fca66aedade2302204c67c4eef76aa9859f58c466a2a17e8a101f1029e712b6ee11b625a5ce10168401"},"sequence":4294967295},{"txid":"32400c94191446f374e335494aa716e15e3999f22ef60304599c16066068f72d","vout":0,"scriptSig":{"asm":"30450221009a1c0c7df0a38715f6bcd8ba7be5b358cb821bd611fedaf13192bdb5795af033022030181dd7cec107eacd1ae4c4dba71322051f78df419acc7731218b64220dfac0[ALL]","hex":"4830450221009a1c0c7df0a38715f6bcd8ba7be5b358cb821bd611fedaf13192bdb5795af033022030181dd7cec107eacd1ae4c4dba71322051f78df419acc7731218b64220dfac001"},"sequence":4294967295},{"txid":"ad1968569cdeb076d5dba2e96be77f9d86e5fbf84b5120b479dd68763cdeae37","vout":0,"scriptSig":{"asm":"304402203597d43afb78c3064989b32ff6ac2bb75fa05e5fb65236a2221b68d19cd3c4d402207057a7d924858caf1419ff499626cf6be6dc2b2bfe6fbdd3f88fb04fc1c1cefd[ALL]","hex":"47304402203597d43afb78c3064989b32ff6ac2bb75fa05e5fb65236a2221b68d19cd3c4d402207057a7d924858caf1419ff499626cf6be6dc2b2bfe6fbdd3f88fb04fc1c1cefd01"},"sequence":4294967295},{"txid":"75b2f70ef339b6992ed771a539909626d04103f0f48bb0e0c50ffda7836e3846","vout":0,"scriptSig":{"asm":"30440220054854ebc98939e33dd41ef979caefe14b0acdf6ee46031565910cd45ba07b0f0220120997236f960764ecac6b0c533f2a819e6f11856b64d052120361f41ba13a80[ALL]","hex":"4730440220054854ebc98939e33dd41ef979caefe14b0acdf6ee46031565910cd45ba07b0f0220120997236f960764ecac6b0c533f2a819e6f11856b64d052120361f41ba13a8001"},"sequence":4294967295},{"txid":"bcb8ab6db1e8fbabb9b4ab0b2b20c2d509ec09c2bdea2191b2a1e6e79aff804b","vout":0,"scriptSig":{"asm":"3045022100cf28ce23af6749dcc7bb083636ea6474ef662d4d9340e351e1c147c6b6245c4202202113bd495b39d15896248789a55eda02d6eb68f4628858179398340933c255a4[ALL]","hex":"483045022100cf28ce23af6749dcc7bb083636ea6474ef662d4d9340e351e1c147c6b6245c4202202113bd495b39d15896248789a55eda02d6eb68f4628858179398340933c255a401"},"sequence":4294967295},{"txid":"cf09abc6e56c1ffb9b5d6c67c1ade67febcde668efc842b52f94a66bce46c525","vout":0,"scriptSig":{"asm":"304402204c30cd27299b5291169254ff533c086284171be31526fa36f87f582d0131132c0220352d0f80015f882e19892dacb61ebdb35b45dd9a6de3f9d7e79c0b211db270cd[ALL]","hex":"47304402204c30cd27299b5291169254ff533c086284171be31526fa36f87f582d0131132c0220352d0f80015f882e19892dacb61ebdb35b45dd9a6de3f9d7e79c0b211db270cd01"},"sequence":4294967295}],"vout":[{"value":1750,"n":0,"scriptPubKey":{"asm":"0485fd1fa45c62de449587d09e5739e506e217dde730e3f0fd0f8c9e7fb7ff0296f0c1a3261ae31812d8607b0f4041d36750864605fb0c9315fede120a0e643ba4 OP_CHECKSIG","hex":"410485fd1fa45c62de449587d09e5739e506e217dde730e3f0fd0f8c9e7fb7ff0296f0c1a3261ae31812d8607b0f4041d36750864605fb0c9315fede120a0e643ba4ac","type":"pubkey"}}],"hex":"0100000023ee66ca2762e7ff1cad776a1fdc1b05dd523bfb206e06a87014ba3012c3e057df0000000049483045022100ec7a06a92e4b910b20f6b733c812bbc95936f42dcc9f8c870004cdd768dbfe6802201d7e4009beadb62548a1967235dac2b52f0c4f999fc98093bcb380ce7baa724101fffffffff5afc43c624389eedc23a05c072803b1656c17070c89e79572da4204d7aeb1250000000049483045022046383ec628b43b3d770bf0955a579ef98e90ad445a1531ad2d356d3bf304cc18022100cb278ab0835a61d2953d309e3805cc4611aaa9b7b8986ff33e2c2279f0c5454401fffffffffc2777d654875888638d35466244096cd32906e81a9423a7d0f441ca02891b40000000004948304502205f8e78715297f85589bbb3b02d32d781a50117c632642903cf97c5c27981f2ba022100ef943f836ba5f0867394bfb23597c02bc240adc3bf799562f42a332bb625d08e01fffffffffe204576a36cead2a9b302b6740f04389d605fca2243c46f9be796f68ba8b597000000004a493046022100e91924f31e06fe5909da12ba2dffd6901deea5ac03ce98aa864ebc9c2fdb61d9022100ef50efb87619b8ec8032cb9a9b066b85d787f78f0ad7eba8f4fe0ad552e3554d01ffffffffff6177071b4cb4531bed128bbb30b00f80fadf421a964fcd915bbbe09956d06f000000004847304402200dc6642e298a874e2e59d24eab636b41c8bb936847ad1b09a5fd873a1ff5c860022003300d84e61dfcb151bc991e6aaa3efa8bde22cfefc430c1a1fe715c253cbbfb01ffffffffffa8810dc2ba7076a0eb6c16f594dab6d3a9810b850d707615def8c9b69f2d6c0000000049483045022068dd453a90170589d5336e81606b7e415a92e9ce1a2e191e707e6b84356c9201022100c1ebd6dedc588d7d0a39baf47db334ebc707dae808e8b62d1bf84be823584d3401ffffffff56c1b72014d89f12bc4d871e906d575940e4f51ac9de500aeaf984d78e323420000000004a493046022100908649eff41bbc98e2f834df99574a8a021a22bac5835e8c354721e89fab263002210083bee7ed535893e1a08f76fb638e805b87d68a484021da88f6015c8bd54e843701ffffffff5a1ea5a2670c5e5e302a91349fd929be43440a804cceb31532378b008dc652b30000000048473044022025161ecc778a6ad293cffc7f1652a68668d28818522badd29e053a00f7be3c9d022006f07ba8218faba61d32f1b08ff69e6f275bc35e2bac29b03e8a9a1f2bb822b601ffffffff5fe4dc77684351554f76a89eade65caa8d085b768854ef573e231d9770f91184000000004a493046022100a094e7af4fc6326b8bf2e79542c22ba0c629944c14e57897971b7f107c67395b022100c810a9e72fffd12c6e258f0066bb806f1372b634cbb04c23b5117439e846bddc01ffffffff64d2425e0b834dadd35ecaa4b4c28085b0bef04c9f02109d24c6a529d6a903910000000049483045022100ff488d8f06f0d50184d001bf13afe498ee0fb003aac88a57d08aaa0d853a5f0802207a344dc2c147e19990f3cc943784cb5cf8e8fd37ed3ae6bc0a8f2ff3e1107dd501ffffffff67a264f88fd552838f7425f14f2206783369a1ec2f0ec029cf5713a82764ae9c000000004a493046022100c4f2e17b96362e4f5ad972e1033c9d283edcfdc39787c7b8c967000e0dc27be5022100e23fa15c7ec36db12af38fd60cf447a4364cfab0513110453476c1ddf56c0bf901ffffffff726b6048a29d2af9d6a21dbb4855425e67692e103e867283b2634c6d6e92aedf000000004948304502203ca7133c179bb0ead27aacd01e0083c2c44c5c1c64503f2b1a0d7f886abfb96a0221008b9da59851550f0ee4f10cdbd632e4fff5ec145b7d486a0d681ca27b38c4c9e801ffffffff7e0645b59c410d89a6c56750a115026fe2dbf2105b9a10a8e68f223e18c7c17f0000000049483045022100d18412fa40af09493eb4e91e3c2fc6c88420d76f55f542054b75f76d7e08b8910220445d5fba3fce7fed354373b8d516b8e337f1fb59b70d39910d39ac0078db6b2d01ffffffff8dc41225b84fff05aeeb1479b0ffd6beee509cc68a7fbedbddf192e1ae4fed30000000004948304502210082f0d08842a4bb3466b9b53d8a941feb46e9ca21593e21157e062a770063ce02022022124a4c0a22928330640ce734dd71f1cc1221ed8a1213601fc4217f8253589001ffffffff96b8da973462e233eeeb870217d9671cff2948afe0a01e57ad54bd22fe11eabf000000004948304502207ba711f5684f20955222485939374bb65ed1c65749c861b1ca3a2eecfda64dac022100e86f57341bbac16f3b625bbe9ff704d5a401e6dbb7f549cf6d7e75de65888c2a01ffffffff9a134e6e603d736d99d305a5135de4a79c6dd60d7507dee586bd82c2a19ecc97000000004847304402207c1291c9dd221e473762ad40e0adfd3eb69f2d1d5bf974d770312973f58b284e02200c5e469cd596cb434740204d8bc852f23e0524205ac8caec6892a1c16d924c6101ffffffff9ca9340386a1648f3d9a626fc42ec530f8247f0de22d9189a9a3ebad9944ed51000000004a493046022100a0c972b40bde8295238ccc9cc46c9524e1985ca21ed030f7605fc5fd6408868f022100c0d1ea429785cd213867764d392fe08e6c4b7921c1c7470a700d3fbea02cf04901ffffffff9e66a05194fe0977aab22bb335d47fd82092a1a64922219f1c8fabee543e2da7000000004a493046022100cbef01b3dc0ceffe6c69ef24a3c492a4070c124db1cae98b018a140921cf3955022100d78159ae805e5e4e7800717a598fa4a5e6786788d35c9c06e83163839073180501ffffffffa080cd7e181858a09cb9fef97f5549670da069597ba5bf14b3b88cef466f22bc000000004948304502205e73a472b6cbf06c011ca7f2ee0346df7469cc5beb51c663a8c58932ca55fdf302210091bef8a0cfb799d92e791aff4f3d9064b933d233fc6197d6d549ca9a60a4ba1a01ffffffffb0e3321eb5c2e019e204f921af24df6e3a7153ef9934de3d5b7e068cf74c5ef00000000049483045022100fd05e974b18c843ad82a3c17cb65387cde312325867342934a52725cca7a476d02207b02809a5b63f1cd72e4d46a78206a44cb6aaba72f85b7c7ce8a43fec61300ac01ffffffffb563659cfc6caa102777aa579da6055993f7f51ab00610493465dbfc7966df3f0000000049483045022100a1982449871b99aa06b9a3c69974099fcbe8d5aa4cb1576556f59c23748127b6022019566603250af7b2fb505ae75bf0b4bc5acfeb7e3cb249f2c904c4e34d468f6901ffffffffb59f42f4eb3ee072b4176b22215e13456d0e78916eeeffea1862621fe2bc8e1f000000004a493046022100b5032f6f4baac626322892468923c88ba778b258dc8f1db83e1a752107d74eef022100f68215f62ffb0814d8b1ef18d51cef001172316f6a91c07c72746cc60110215801ffffffffbb268b71c7d9e9e4091c132dd342371383da6929e72aab599e91db35424efaa0000000004847304402201118a5f52331d5a3e8919dae9d972b7915337ef59c657b03669e9748a3c0604802204bf0a4052f0e86e4baee84e59f8e5c90206f3ab20bdcac12bf05e92e1710723801ffffffffbb43f4cf2941f3c4113402fefc2aba4d99bf07b8bb729aad3c3153816b85c29e00000000494830450220195f0b3ff2a030b2d13c7ec9e89c83e231b6d768e20d6f44d4adf44eadfba123022100823846a70f6a567a52ef3cec3a941d6633766a85da3cdcb9b2ddcf3a3ceb0b8801ffffffffbd81e0942e390addd91e72addfca4c2199b97137fc174717c6eec6922c002c18000000004a4930460221008a349df7d32a5ae400b742fd9f3cc29c4aa09d9d21870ab4d12fba76aaab6eea02210080050495cf47f300c39044896457aea1ebe23768e25b8b08dca9a1c88f32c93101ffffffffc8d111aa7c292b521745ac8761f47eef99b91c88c9815946e988aca431b66a02000000004948304502210092deeb93410c147761c46e5a73cd55f09a188454f1c1400b7a9a9bea90dc7989022028702df7db410d803abf7c666406cf4d23be7b3ec7b202a5dc5b6ab58f8d1aaa01ffffffffe39e9c25b0557522a96edb5828ee3dd3345432f26fdf0968a15251beb0885d6e0000000049483045022100ff15d42e2672790ec48037eb2b3b182bc0d3c012423099f86fc9a42db5a8b01202201572966348450eab9326befe3aec986e7ed6901c1b21d840f8c936cffd106c7001ffffffffe47a5095295642f5e74bb7f261c855f187de9363faf36326f0e8b6065ea64c18000000004948304502210097262257a6b04107493a051824b019f0c086257ebacdb69b3ff4d2c69ddeb0a002201b171d36c16878eb30d49e05e0e9957032a818c12e6eb3bff272d2ce1204f35801ffffffffe595dd097e86550e995a4a779be75cb3cf2b9adb4c830778ac4cb65e036817b7000000004948304502203f00055c832cf61db8d73f7ac07812267d1608adfb1e4a86bc4afcb3365db717022100cebbe2bb71241fa19f83f8c8dca0fd31733396ac308d5eac63c6a0af5e553bf001ffffffff2d95ee146def0f781fa83b24ebc6d76ad06ea93746ef63af932150710982c997000000004847304402206fc6fe9e34928a99011aabfbea19638bf291977b1950dfcacc8fca66aedade2302204c67c4eef76aa9859f58c466a2a17e8a101f1029e712b6ee11b625a5ce10168401ffffffff2df7686006169c590403f62ef299395ee116a74a4935e374f3461419940c403200000000494830450221009a1c0c7df0a38715f6bcd8ba7be5b358cb821bd611fedaf13192bdb5795af033022030181dd7cec107eacd1ae4c4dba71322051f78df419acc7731218b64220dfac001ffffffff37aede3c7668dd79b420514bf8fbe5869d7fe76be9a2dbd576b0de9c566819ad000000004847304402203597d43afb78c3064989b32ff6ac2bb75fa05e5fb65236a2221b68d19cd3c4d402207057a7d924858caf1419ff499626cf6be6dc2b2bfe6fbdd3f88fb04fc1c1cefd01ffffffff46386e83a7fd0fc5e0b08bf4f00341d026969039a571d72e99b639f30ef7b27500000000484730440220054854ebc98939e33dd41ef979caefe14b0acdf6ee46031565910cd45ba07b0f0220120997236f960764ecac6b0c533f2a819e6f11856b64d052120361f41ba13a8001ffffffff4b80ff9ae7e6a1b29121eabdc209ec09d5c2202b0babb4b9abfbe8b16dabb8bc0000000049483045022100cf28ce23af6749dcc7bb083636ea6474ef662d4d9340e351e1c147c6b6245c4202202113bd495b39d15896248789a55eda02d6eb68f4628858179398340933c255a401ffffffff25c546ce6ba6942fb542c8ef68e6cdeb7fe6adc1676c5d9bfb1f6ce5c6ab09cf000000004847304402204c30cd27299b5291169254ff533c086284171be31526fa36f87f582d0131132c0220352d0f80015f882e19892dacb61ebdb35b45dd9a6de3f9d7e79c0b211db270cd01ffffffff010016d0be2800000043410485fd1fa45c62de449587d09e5739e506e217dde730e3f0fd0f8c9e7fb7ff0296f0c1a3261ae31812d8607b0f4041d36750864605fb0c9315fede120a0e643ba4ac00000000"},{"txid":"707e86e5e2356cb53a2edf0be391d56cfc998bcfa05a13a5772ef474c5eba105","hash":"707e86e5e2356cb53a2edf0be391d56cfc998bcfa05a13a5772ef474c5eba105","version":1,"size":259,"vsize":259,"weight":1036,"locktime":0,"vin":[{"txid":"cadb179c2d6370d957979ee66add4aa863114dd6afe89b32267fae23b1b80e1c","vout":0,"scriptSig":{"asm":"3046022100f23fbb9e67e982252920aed8cb83cc694d29f39783ba1640d9e07a2d2c874864022100cba50bbe62037815d580e754f014ee1f91a420e62a4c94ae802613d2cebab8fa[ALL] 043070d3de950bc1e1866194343e45b01043f6349181f83643d1bd54dc9539f78fd81323f6d5fdd3136b8a90349adda3390d9344f15091e0360d74c4a062820d82","hex":"493046022100f23fbb9e67e982252920aed8cb83cc694d29f39783ba1640d9e07a2d2c874864022100cba50bbe62037815d580e754f014ee1f91a420e62a4c94ae802613d2cebab8fa0141043070d3de950bc1e1866194343e45b01043f6349181f83643d1bd54dc9539f78fd81323f6d5fdd3136b8a90349adda3390d9344f15091e0360d74c4a062820d82"},"sequence":4294967295}],"vout":[{"value":123,"n":0,"scriptPubKey":{"asm":"OP_DUP OP_HASH160 e34f5e36c49f35c5f4d6adb5520dd570accf6e00 OP_EQUALVERIFY OP_CHECKSIG","hex":"76a914e34f5e36c49f35c5f4d6adb5520dd570accf6e0088ac","reqSigs":1,"type":"pubkeyhash","addresses":["1MiuU8gWTkLy4gFpAyZfE79BDUtxRu27pH"]}},{"value":0.5,"n":1,"scriptPubKey":{"asm":"OP_DUP OP_HASH160 5a89f11fbfd62818e15d35515c39fcfa9d57394a OP_EQUALVERIFY OP_CHECKSIG","hex":"76a9145a89f11fbfd62818e15d35515c39fcfa9d57394a88ac","reqSigs":1,"type":"pubkeyhash","addresses":["19Fj4drFPPKisc45V4u8dGnjxkQKmJx8mi"]}}],"hex":"01000000011c0eb8b123ae7f26329be8afd64d1163a84add6ae69e9757d970632d9c17dbca000000008c493046022100f23fbb9e67e982252920aed8cb83cc694d29f39783ba1640d9e07a2d2c874864022100cba50bbe62037815d580e754f014ee1f91a420e62a4c94ae802613d2cebab8fa0141043070d3de950bc1e1866194343e45b01043f6349181f83643d1bd54dc9539f78fd81323f6d5fdd3136b8a90349adda3390d9344f15091e0360d74c4a062820d82ffffffff02001b23dd020000001976a914e34f5e36c49f35c5f4d6adb5520dd570accf6e0088ac80f0fa02000000001976a9145a89f11fbfd62818e15d35515c39fcfa9d57394a88ac00000000"},{"txid":"711e15a9a819de4d1269d71de9744dedf9b6c32bba36bb0196f003f6507d4bb4","hash":"711e15a9a819de4d1269d71de9744dedf9b6c32bba36bb0196f003f6507d4bb4","version":1,"size":223,"vsize":223,"weight":892,"locktime":0,"vin":[{"txid":"8797d6736866070cfdc93dc3583e0cd6ad7b1b84436da41cc71e5c8e3fb358cb","vout":0,"scriptSig":{"asm":"3044022051eead495cbfff805fac5bba1316c245ecb6608692e52be78af2d19124c00330022059f21e93e00eb320f3e2e0694ba107c6c78f2f357513ced61c7f7ceaf8fa006f[ALL] 04e6f1edde395e95478081dc8860fbac092ad04546d07fdd578f69352acac161ad61524a36c492304b1eaf809e1a79bdca1ac2553309b1d25abe81f8ab198ef533","hex":"473044022051eead495cbfff805fac5bba1316c245ecb6608692e52be78af2d19124c00330022059f21e93e00eb320f3e2e0694ba107c6c78f2f357513ced61c7f7ceaf8fa006f014104e6f1edde395e95478081dc8860fbac092ad04546d07fdd578f69352acac161ad61524a36c492304b1eaf809e1a79bdca1ac2553309b1d25abe81f8ab198ef533"},"sequence":4294967295}],"vout":[{"value":2000,"n":0,"scriptPubKey":{"asm":"OP_DUP OP_HASH160 1b8176890c5b0cd5a27327b4e24d6bab66cce033 OP_EQUALVERIFY OP_CHECKSIG","hex":"76a9141b8176890c5b0cd5a27327b4e24d6bab66cce03388ac","reqSigs":1,"type":"pubkeyhash","addresses":["13WSLRqydLeeey6T3CFQtm5moN3QdQ7bZp"]}}],"hex":"0100000001cb58b33f8e5c1ec71ca46d43841b7badd60c3e58c33dc9fd0c07666873d69787000000008a473044022051eead495cbfff805fac5bba1316c245ecb6608692e52be78af2d19124c00330022059f21e93e00eb320f3e2e0694ba107c6c78f2f357513ced61c7f7ceaf8fa006f014104e6f1edde395e95478081dc8860fbac092ad04546d07fdd578f69352acac161ad61524a36c492304b1eaf809e1a79bdca1ac2553309b1d25abe81f8ab198ef533ffffffff0100d0ed902e0000001976a9141b8176890c5b0cd5a27327b4e24d6bab66cce03388ac00000000"},{"txid":"8c1e409484e30c205698647753cca07d826c34756773bd0432202487f28e2d54","hash":"8c1e409484e30c205698647753cca07d826c34756773bd0432202487f28e2d54","version":1,"size":257,"vsize":257,"weight":1028,"locktime":0,"vin":[{"txid":"707e86e5e2356cb53a2edf0be391d56cfc998bcfa05a13a5772ef474c5eba105","vout":0,"scriptSig":{"asm":"304402204c5828e8ae4f276a020ca6ab27bfccb9b10c215a087366e2f67c30e91a7d7c9002203597de882594a8736c7679b94f4c2785481147e305793e8c374dd896c4b6ec17[ALL] 04bc4ae4f4f611b1dcad89d7924e26551c69222e9fce9bc46fc214c3a9c39790c04bffaef5d1d5e381890582947c33fa5d985bd91a7b7ce1e060b2b86a858a2ca8","hex":"47304402204c5828e8ae4f276a020ca6ab27bfccb9b10c215a087366e2f67c30e91a7d7c9002203597de882594a8736c7679b94f4c2785481147e305793e8c374dd896c4b6ec17014104bc4ae4f4f611b1dcad89d7924e26551c69222e9fce9bc46fc214c3a9c39790c04bffaef5d1d5e381890582947c33fa5d985bd91a7b7ce1e060b2b86a858a2ca8"},"sequence":4294967295}],"vout":[{"value":122.5,"n":0,"scriptPubKey":{"asm":"OP_DUP OP_HASH160 49f3f3a5e2e654e99797265128095a78155cdd79 OP_EQUALVERIFY OP_CHECKSIG","hex":"76a91449f3f3a5e2e654e99797265128095a78155cdd7988ac","reqSigs":1,"type":"pubkeyhash","addresses":["17k2a4xyXmt1pCz6oRYPweRgLmZzp6rHZW"]}},{"value":0.5,"n":1,"scriptPubKey":{"asm":"OP_DUP OP_HASH160 9bdd8612035eca220408fce88d4d851cbb2fb594 OP_EQUALVERIFY OP_CHECKSIG","hex":"76a9149bdd8612035eca220408fce88d4d851cbb2fb59488ac","reqSigs":1,"type":"pubkeyhash","addresses":["1FD97UKjLuwXPWU84NMXwvfnJmnmnG56QT"]}}],"hex":"010000000105a1ebc574f42e77a5135aa0cf8b99fc6cd591e30bdf2e3ab56c35e2e5867e70000000008a47304402204c5828e8ae4f276a020ca6ab27bfccb9b10c215a087366e2f67c30e91a7d7c9002203597de882594a8736c7679b94f4c2785481147e305793e8c374dd896c4b6ec17014104bc4ae4f4f611b1dcad89d7924e26551c69222e9fce9bc46fc214c3a9c39790c04bffaef5d1d5e381890582947c33fa5d985bd91a7b7ce1e060b2b86a858a2ca8ffffffff02802a28da020000001976a91449f3f3a5e2e654e99797265128095a78155cdd7988ac80f0fa02000000001976a9149bdd8612035eca220408fce88d4d851cbb2fb59488ac00000000"},{"txid":"abfaf8e7ad6241ca5161e517baade1275cf6333d0d118d221f894813bacb4f78","hash":"abfaf8e7ad6241ca5161e517baade1275cf6333d0d118d221f894813bacb4f78","version":1,"size":761,"vsize":761,"weight":3044,"locktime":0,"vin":[{"txid":"3d497b928cf399e6fc033f8203df19457724409f01581f23ec4d94a6d7ab6892","vout":0,"scriptSig":{"asm":"304402205217b653b766c71b9d13493abe65ae059c9a171e514003fbf318a84326a4154d02203b719f33dd85ea4b8f538dc02d0369d163e78c6b26ab63c664bf1ca865eb764a[ALL] 0422246be54336d1d49d946ffb11c9609f7b0fac079dfa3707dc1cd44a87ddc8247a8667865732beed584329544a281ce2efeffe21d4885edbe392095377673339","hex":"47304402205217b653b766c71b9d13493abe65ae059c9a171e514003fbf318a84326a4154d02203b719f33dd85ea4b8f538dc02d0369d163e78c6b26ab63c664bf1ca865eb764a01410422246be54336d1d49d946ffb11c9609f7b0fac079dfa3707dc1cd44a87ddc8247a8667865732beed584329544a281ce2efeffe21d4885edbe392095377673339"},"sequence":4294967295},{"txid":"42fbd2c3db9663e6b052f0fb770d58f896ab199501c019400aaa02b4e74f05bd","vout":0,"scriptSig":{"asm":"304402205e21bd9f339cbc2b452cea46d46419bd75788d257f4f4c334872d85027c38932022067847a7895b61bd38cb12d9e6576c6b73db76c56da6e600bdf9749dcf0b90e62[ALL] 04e6f1edde395e95478081dc8860fbac092ad04546d07fdd578f69352acac161ad61524a36c492304b1eaf809e1a79bdca1ac2553309b1d25abe81f8ab198ef533","hex":"47304402205e21bd9f339cbc2b452cea46d46419bd75788d257f4f4c334872d85027c38932022067847a7895b61bd38cb12d9e6576c6b73db76c56da6e600bdf9749dcf0b90e62014104e6f1edde395e95478081dc8860fbac092ad04546d07fdd578f69352acac161ad61524a36c492304b1eaf809e1a79bdca1ac2553309b1d25abe81f8ab198ef533"},"sequence":4294967295},{"txid":"8e850f16053d4dd823553094a1ee8a4df63a898fc202500907e3daaa7c6293db","vout":0,"scriptSig":{"asm":"3044022019dc5703fa003daf712d7ab3b38c1c91ffedf60735f538a7bb4126982cda5c8f02201fe0bfe0a65e2ab686f67c6bfb140a399eee7a2e9739baf0c260e4601f178dda[ALL] 04e6f1edde395e95478081dc8860fbac092ad04546d07fdd578f69352acac161ad61524a36c492304b1eaf809e1a79bdca1ac2553309b1d25abe81f8ab198ef533","hex":"473044022019dc5703fa003daf712d7ab3b38c1c91ffedf60735f538a7bb4126982cda5c8f02201fe0bfe0a65e2ab686f67c6bfb140a399eee7a2e9739baf0c260e4601f178dda014104e6f1edde395e95478081dc8860fbac092ad04546d07fdd578f69352acac161ad61524a36c492304b1eaf809e1a79bdca1ac2553309b1d25abe81f8ab198ef533"},"sequence":4294967295},{"txid":"44b6613ad11ef996ccdbfc3068307f34d326eb203d3110a023faad1fd2c3b753","vout":0,"scriptSig":{"asm":"3045022100a9a07e51bafaec4217b17eef7f5c5c72293fd003a8dc3a66835a916131b09b9402203c479bb34703d9cc2295fb0e06b5c3a5f42cc937ed055443fd9747deb777cfc1[ALL] 04ca749ff487dcd380faa1d0ae6f593de9e45319a28e1e402a33fecac3d8ad69da765be8d8fd2b4d22d6cb136fe92fd46a57fb014c2417aae39f49cb1d15757c57","hex":"483045022100a9a07e51bafaec4217b17eef7f5c5c72293fd003a8dc3a66835a916131b09b9402203c479bb34703d9cc2295fb0e06b5c3a5f42cc937ed055443fd9747deb777cfc1014104ca749ff487dcd380faa1d0ae6f593de9e45319a28e1e402a33fecac3d8ad69da765be8d8fd2b4d22d6cb136fe92fd46a57fb014c2417aae39f49cb1d15757c57"},"sequence":4294967295}],"vout":[{"value":1800,"n":0,"scriptPubKey":{"asm":"OP_DUP OP_HASH160 b97ed4cbe8e2ce63b0b8a2b39786a06e3f4ba4a6 OP_EQUALVERIFY OP_CHECKSIG","hex":"76a914b97ed4cbe8e2ce63b0b8a2b39786a06e3f4ba4a688ac","reqSigs":1,"type":"pubkeyhash","addresses":["1HuowstfD7HhRCNqju4RexUWy8Kz5WD83Q"]}}],"hex":"01000000049268abd7a6944dec231f58019f4024774519df03823f03fce699f38c927b493d000000008a47304402205217b653b766c71b9d13493abe65ae059c9a171e514003fbf318a84326a4154d02203b719f33dd85ea4b8f538dc02d0369d163e78c6b26ab63c664bf1ca865eb764a01410422246be54336d1d49d946ffb11c9609f7b0fac079dfa3707dc1cd44a87ddc8247a8667865732beed584329544a281ce2efeffe21d4885edbe392095377673339ffffffffbd054fe7b402aa0a4019c0019519ab96f8580d77fbf052b0e66396dbc3d2fb42000000008a47304402205e21bd9f339cbc2b452cea46d46419bd75788d257f4f4c334872d85027c38932022067847a7895b61bd38cb12d9e6576c6b73db76c56da6e600bdf9749dcf0b90e62014104e6f1edde395e95478081dc8860fbac092ad04546d07fdd578f69352acac161ad61524a36c492304b1eaf809e1a79bdca1ac2553309b1d25abe81f8ab198ef533ffffffffdb93627caadae307095002c28f893af64d8aeea194305523d84d3d05160f858e000000008a473044022019dc5703fa003daf712d7ab3b38c1c91ffedf60735f538a7bb4126982cda5c8f02201fe0bfe0a65e2ab686f67c6bfb140a399eee7a2e9739baf0c260e4601f178dda014104e6f1edde395e95478081dc8860fbac092ad04546d07fdd578f69352acac161ad61524a36c492304b1eaf809e1a79bdca1ac2553309b1d25abe81f8ab198ef533ffffffff53b7c3d21fadfa23a010313d20eb26d3347f306830fcdbcc96f91ed13a61b644000000008b483045022100a9a07e51bafaec4217b17eef7f5c5c72293fd003a8dc3a66835a916131b09b9402203c479bb34703d9cc2295fb0e06b5c3a5f42cc937ed055443fd9747deb777cfc1014104ca749ff487dcd380faa1d0ae6f593de9e45319a28e1e402a33fecac3d8ad69da765be8d8fd2b4d22d6cb136fe92fd46a57fb014c2417aae39f49cb1d15757c57ffffffff010008d6e8290000001976a914b97ed4cbe8e2ce63b0b8a2b39786a06e3f4ba4a688ac00000000"}],"time":1282141368,"mediantime":1282138870,"nonce":846309137,"bits":"1c00800e","difficulty":511.7735342566043,"chainwork":"0000000000000000000000000000000000000000000000000021910090d71b34","nTx":6,"previousblockhash":"0000000000688c8c87b50fe8b44046aee25ad52354d25f1313472879e336b967","nextblockhash":"000000000049e6b73d84db7eb4704a52fb923f28a96276bf7e62ecebd00933a1"}