{"hash":"000000001d3fe4f9d83b8616e09d9a95d52f789fb875ed6e0cb1151c46c9d0c8","confirmations":535453,"strippedsize":216,"size":216,"weight":864,"height":12500,"version":1,"versionHex":"00000001","merkleroot":"9e00632b4d073716f6933ab8f444746fd8b525d584ec07d7107633daec0140e6","tx":[{"txid":"9e00632b4d073716f6933ab8f444746fd8b525d584ec07d7107633daec0140e6","hash":"9e00632b4d073716f6933ab8f444746fd8b525d584ec07d7107633daec0140e6","version":1,"size":135,"vsize":135,"weight":540,"locktime":0,"vin":[{"coinbase":"04ffff001d02ae09","sequence":4294967295}],"vout":[{"value":50,"n":0,"scriptPubKey":{"asm":"049db786b6b252d45587de9884b08c33807620f9be18cc166eff37927ea4208ef8ac39154ffd7578219cdd25eaf7dc5b8af677f695a3e8dad3874fe76094f18399 OP_CHECKSIG","hex":"41049db786b6b252d45587de9884b08c33807620f9be18cc166eff37927ea4208ef8ac39154ffd7578219cdd25eaf7dc5b8af677f695a3e8dad3874fe76094f18399ac","type":"pubkey"}}],"hex":"01000000010000000000000000000000000000000000000000000000000000000000000000ffffffff0804ffff001d02ae09ffffffff0100f2052a010000004341049db786b6b252d45587de9884b08c33807620f9be18cc166eff37927ea4208ef8ac39154ffd7578219cdd25eaf7dc5b8af677f695a3e8dad3874fe76094f18399ac00000000"}],"time":1240910013,"mediantime":1240907677,"nonce":1765010456,"bits":"1d00ffff","difficulty":1,"chainwork":"000000000000000000000000000000000000000000000000000030d530d530d5","nTx":1,"previousblockhash":"000000006ea643535bbd9364081b8159f16d24658d5e885deebdee6026295de0","nextblockhash":"00000000e82eb2fff1ab11ac39ee85a82a3d74f7e5d9cf975923bc028aad6869"}