{"hash":"0000000000071d3635e2992f79aae907b897dd6683089d159cb96988aa16349b","confirmations":380612,"strippedsize":215,"size":215,"weight":860,"height":87500,"version":1,"versionHex":"00000001","merkleroot":"b1fd3b2196c8f1f34ab664a23173a1e8f485c4739aa3aabf6df48b58964cefab","tx":[{"txid":"b1fd3b2196c8f1f34ab664a23173a1e8f485c4739aa3aabf6df48b58964cefab","hash":"b1fd3b2196c8f1f34ab664a23173a1e8f485c4739aa3aabf6df48b58964cefab","version":1,"size":134,"vsize":134,"weight":536,"locktime":0,"vin":[{"coinbase":"04ca7e1e1b0108","sequence":4294967295}],"vout":[{"value":50,"n":0,"scriptPubKey":{"asm":"04bec91428403882c7919efc0d01488b2ae842be308ca9675792b7e964fd1c85883295df2ca8bed48d292e61a9cccd255e7f747e1dadaece990fd47459baf28a27 OP_CHECKSIG","hex":"4104bec91428403882c7919efc0d01488b2ae842be308ca9675792b7e964fd1c85883295df2ca8bed48d292e61a9cccd255e7f747e1dadaece990fd47459baf28a27ac","type":"pubkey"}}],"hex":"01000000010000000000000000000000000000000000000000000000000000000000000000ffffffff0704ca7e1e1b0108ffffffff0100f2052a01000000434104bec91428403882c7919efc0d01488b2ae842be308ca9675792b7e964fd1c85883295df2ca8bed48d292e61a9cccd255e7f747e1dadaece990fd47459baf28a27ac00000000"}],"time":1288023957,"mediantime":1288021666,"nonce":3746778300,"bits":"1b1e7eca","difficulty":2149.021814946726,"chainwork":"00000000000000000000000000000000000000000000000000e112b5407a6ec9","nTx":1,"previousblockhash":"0000000000139e3149c96e08b86c65029a8d97c9d6650c3deb1404f6ce91084b","nextblockhash":"0000000000123c2159d3a40110c7ec34cfc4de4df1da4e25676f87bfa0ee2ac0"}