{"hash":"00000000ae4b125eb183e689b7231eafa8c992d5b8c952d9f3cd30a79a788ddf","confirmations":496127,"strippedsize":215,"size":215,"weight":860,"height":25000,"version":1,"versionHex":"00000001","merkleroot":"ac3e686574072f5fe09e6c190d5ad365613833bbdf2ad8295e43468631132cd9","tx":[{"txid":"ac3e686574072f5fe09e6c190d5ad365613833bbdf2ad8295e43468631132cd9","hash":"ac3e686574072f5fe09e6c190d5ad365613833bbdf2ad8295e43468631132cd9","version":1,"size":134,"vsize":134,"weight":536,"locktime":0,"vin":[{"coinbase":"04ffff001d011a","sequence":4294967295}],"vout":[{"value":50,"n":0,"scriptPubKey":{"asm":"04008e3dfc28ed4e929ee0a60f511a6ecfc53d6c8c72d9c02bf858a0b0cd8f4d2b50745026fa29d6bcea7992799c5fa6183bad67f6612f8c34b780dd2b0e364946 OP_CHECKSIG","hex":"4104008e3dfc28ed4e929ee0a60f511a6ecfc53d6c8c72d9c02bf858a0b0cd8f4d2b50745026fa29d6bcea7992799c5fa6183bad67f6612f8c34b780dd2b0e364946ac","type":"pubkey"}}],"hex":"01000000010000000000000000000000000000000000000000000000000000000000000000ffffffff0704ffff001d011affffffff0100f2052a01000000434104008e3dfc28ed4e929ee0a60f511a6ecfc53d6c8c72d9c02bf858a0b0cd8f4d2b50745026fa29d6bcea7992799c5fa6183bad67f6612f8c34b780dd2b0e364946ac00000000"}],"time":1255562441,"mediantime":1255559741,"nonce":58357300,"bits":"1d00ffff","difficulty":1,"chainwork":"000000000000000000000000000000000000000000000000000061a961a961a9","nTx":1,"previousblockhash":"00000000a76bc8e64eaa38b946eb196dbfd2293412f042323d888aff8d7ca3d1","nextblockhash":"00000000a700c40776e53c325f32b4ff3590ebba2cc24ff50a5e3ea6f1b99ecc"}